:020000040000FA
:02000000EE28E8
:040008008031F42827
:02000E00A50843
:10001000031D0B280800F93000000000000000005C
:10002000FF3E031D0C28000000000000000000003F
:10003000A50B0B2808002E08240091001F30160580
:10004000031914191E280800200091112400161508
:100050002000911D2828080091112400161420006A
:10006000911D2F282D08AE00AE351B2008006030F2
:10007000AD002C2020002A08AE000F30AE051B205A
:1000800020002908AE001B2020002C08AE000F30F5
:10009000AE051B2020002B08AE001B2020002808E6
:1000A000AE000F30AE051B2020002708AE001B203D
:1000B00020002608AE000F30AE051B2020002508CA
:1000C000AE001B20242008008030A60022000C1265
:1000D0002000A6080319882822008C122000260878
:1000E0002505A700A801A7080319A80AA901A808BF
:1000F0000319A90A291C7E2822008E152000291820
:10010000832822008E1122008C162000A636682833
:1001100022000C16080021000E148E1424009516DF
:10012000151695151511951015109417133092008A
:10013000080072302100990002308C0030308E00AF
:1001400023008C018E0120008C018E018B208B17E7
:100150000B172000A301A40180302305A500A601F0
:10016000A701A5080319A70AA608031DA701A8014E
:10017000A7080319A80A281CBF2822000C15200074
:100180002818C42822000C112000A31CCA28013002
:10019000A500CB28A50164202000A30A0319A40A06
:1001A000A501A6012308A7002408A800A901AA0107
:1001B000AB01AC013720A30A0319A40A24080F3CA1
:1001C000031DE4282308FF3C0318EA28A41BEA289F
:1001D000A301A4010A30A5000720AC282000A0013B
:1001E000A101A201803199282000911E090023005D
:1001F00019082000AF002F08F83A031D0B29A20AA6
:100200002208183A031D092922000C152000A2011A
:0C0210000B2922000C11200091120900A3
:020000040001F9
:02000E00A4FF4D
:02001000FFDE11
:00000001FF
